{
  "transactions": [
    {
      "hash": "0xcca7b84841a097faf84023da8878fbdceb863f9dca92fd56c367a2ae5ff5831f",
      "transactionType": "CALL",
      "contractName": "CounterFactory",
      "contractAddress": "0xc043f015eb8ca0b94d4cade622ed7369ce4ffe4e",
      "function": "deployCounter(address,bytes32)",
      "arguments": [
        "0xC7f2Cf4845C6db0e1a1e91ED41Bcd0FcC1b0E141",
        "0x0000000000000000000000000000000000000000000000000000000000007511"
      ],
      "transaction": {
        "from": "0x41a4bb4861a784a81b1575ea8f74251124494ed3",
        "to": "0xc043f015eb8ca0b94d4cade622ed7369ce4ffe4e",
        "gas": "0x7474",
        "value": "0x0",
        "input": "0xc8a4f5fb000000000000000000000000c7f2cf4845c6db0e1a1e91ed41bcd0fcc1b0e1410000000000000000000000000000000000000000000000000000000000007511",
        "nonce": "0x0",
        "chainId": "0x14a34"
      },
      "additionalContracts": [],
      "isFixedGasLimit": false
    }
  ],
  "receipts": [
    {
      "status": "0x1",
      "cumulativeGasUsed": "0x1d50f5",
      "logs": [],
      "logsBloom": "0x00000000000000000000000000000000000000000000000000000000000000000000000000000000000000000000000000000000000000000000000000000000000000000000000000000000000000000000000000000000000000000000000000000000000000000000000000000000000000000000000000000000000000000000000000000000000000000000000000000000000000000000000000000000000000000000000000000000000000000000000000000000000000000000000000000000000000000000000000000000000000000000000000000000000000000000000000000000000000000000000000000000000000000000000000000000",
      "type": "0x2",
      "transactionHash": "0xcca7b84841a097faf84023da8878fbdceb863f9dca92fd56c367a2ae5ff5831f",
      "transactionIndex": "0x7",
      "blockHash": "0x7df040202e5303615286123a1da2638c57055e06ab70249cd9657b2f7238079b",
      "blockNumber": "0xbecd07",
      "gasUsed": "0x5450",
      "effectiveGasPrice": "0xf435b",
      "from": "0x41a4bb4861a784a81b1575ea8f74251124494ed3",
      "to": "0xc043f015eb8ca0b94d4cade622ed7369ce4ffe4e",
      "contractAddress": null,
      "l1BaseFeeScalar": "0x44d",
      "l1BlobBaseFee": "0x1",
      "l1BlobBaseFeeScalar": "0xa118b",
      "l1Fee": "0x25b840eb7",
      "l1GasPrice": "0x156986449",
      "l1GasUsed": "0x640"
    }
  ],
  "libraries": [],
  "pending": [],
  "returns": {},
  "timestamp": 1720776950,
  "chain": 84532,
  "commit": "7341437"
}